:020000040800F2
:10000000A805002001010008151E0008551B000866
:10001000751D000833060008C92400080000000010
:10002000000000000000000000000000F51E0008B5
:10003000BB07000800000000F31E00085D1F000859
:100040001B0100081B0100081B0100081B01000820
:100050001B0100081B0100081B0100081B01000810
:100060001B0100081B0100081B0100081B01000800
:100070001B0100081B01000879070008850700081C
:100080001B0100081B0100081B0100081B010008E0
:100090001B0100081B0100081B0100081B010008D0
:1000A0001B0100081B0100081B0100081B010008C0
:1000B0001B010008F91F00081B0100081B010008B4
:1000C0001B0100081B0100081B0100081B010008A0
:1000D0001B010008BD2400081B0100081B010008CB
:1000E0001B0100081B0100081B010008DFF80CD0F1
:1000F00000F07EFA0048004709250008A805002006
:100100000648804706480047FEE7FEE7FEE7FEE7B1
:10011000FEE7FEE7FEE7FEE7FEE7FEE7B11F0008A9
:10012000ED000008202A04DB203A21FA02F0002129
:10013000704721FA02F3D040C2F1200291400843F7
:1001400019467047D2B201E000F8012B491EFBD2DC
:1001500070470022F6E710B513460A4604461946D2
:10016000FFF7F0FF204610BDF0B480EA0102D40F83
:100170004200B2EB410F02D20246084611464A0045
:1001800042D0C30DDDB2C1F3C752AD1A202D35DA0E
:10019000C1F3160141F4000204B15242C5F1200638
:1001A00002FA06F12A411044B3EBD05F23D0C4B168
:1001B000012DA0EBC35009DCF0BC4FF0004202EA75
:1001C000C352DBB200F5000000F087B9400000F137
:1001D000807000EBC350A0F1807040EAD1704900FC
:1001E00009E0490841EAC071A0EBC35000F50000E6
:1001F000400800EBC350F0BC00F066B96142012238
:1002000002EB4101001BF6E7F0BC704781F00041B2
:10021000AAE780F00040A7E780EA010210B502F0EB
:100220000043400022D04A001FD0010E01EB1261B2
:10023000C0F35600C2F3560240F4000042F400023C
:10024000A0FB022000047F39140400D0401C50EAB7
:10025000124001D44000491EC2B20C0604EBD0107B
:10026000401C4008802A02D003E0002010BD20F08E
:100270000100002900DA0020184310BD30B480EAE4
:10028000010202F0004530F0004221F0004013D09E
:1002900090B1C30DD40DC2F31601C0F31600E41AD9
:1002A00041F4000140F400027D34914201D3641C0A
:1002B00000E04900002C02DA30BC002070474FF407
:1002C00000000023914201D3891A034340084FEAFA
:1002D0004101F7D151B1914202D14FF0004105E007
:1002E00002D24FF0010101E06FF0010103EBC450B5
:1002F000284430BC00F0E8B8420005D0C0F3C75233
:100300005242914201DC0020704700EBC15070471F
:100310002DE9FE4F81EA030404F0004421F000417E
:1003200000944FF0000B23F0004350EA01045ED02C
:1003300052EA03045BD0C3F30A54C1F30A552C44B8
:10034000A4F2F3340194A0FB0254C1F3130141F46D
:100350008011C3F3130343F4801301FB024400FB39
:10036000034E840A970A44EA815447EA8357A4FB60
:10037000076802958D0A05FB07854FEA932C04FB5D
:100380000C542705029D4FEA065847EA1637B5EB8D
:1003900008056EEB070C870E920E47EA811742EABA
:1003A0008312A7FB0201B6EB0B0164EB00042B0DDB
:1003B00043EA0C335E1844EB1C50DA465146E7FB27
:1003C0000201C5F313044FEA0B3343EA14534FEA17
:1003D0000432019C43EA0603A4F10C040294009C3D
:1003E000CDE900B400F0B6F803B0BDE8F08F00200E
:1003F0000146F9E770B521F0004303430CD0C1F387
:100400000A550024D5EB040564EB0403D617AD1A96
:10041000B34102DB0020014670BD201841EB0251C0
:1004200070BD00F0004220F00040C10DC0F3160086
:1004300040F400007F2901DA00207047962903DC90
:10044000C1F19601C84001E096398840002AF4D0F5
:100450004042704700F0004230F000400AD0C10D29
:1004600001F56071C0F3160042EA0151C20840076D
:100470001143704700200146704701F0004330B43B
:1004800021F0004150EA010206D00A0DA2F5607287
:10049000C1F31301002A02DC30BC00207047440F76
:1004A00044EAC104C100E01830BC00EBC25000F0C7
:1004B0000BB80000002801DBC0F10040002901DB7F
:1004C000C1F10041884270470029A8BF7047401C15
:1004D000490008BF20F00100704710B4B0FA80FC5A
:1004E00000FA0CF050EA010404BF10BC704749B197
:1004F000CCF1200421FA04F411FA0CF118BF012107
:1005000021430843A3EB0C01CB1D4FEA00614FEAE6
:10051000102042BF002010BC704700EBC3501044B5
:100520000029A4BF10BC7047401C490008BF20F040
:10053000010010BC704710B5141E73F1000408DAF6
:10054000401C41F1000192185B411A4301D120F097
:10055000010010BD2DE9F04D92469B4611B1B1FA54
:1005600081F202E0B0FA80F22032904600F052F8B8
:1005700004460F4640EA0A0041EA0B0153465A4638
:10058000084313D0114653EA010019D0C8F14002C4
:100590005046FFF7C7FD05460E46504659464246AF
:1005A00000F038F8084305D0012004E02046394621
:1005B000BDE8F08D0020054346EAE0762C43374342
:1005C0000A986305E40AA0EB08000022FD0A44EA49
:1005D00047540A3002D500200146E9E70105101909
:1005E0006941DDE9084500196941BDE8F04DA2E720
:1005F000064C074D06E0E06840F0010394E8070070
:1006000098471034AC42F6D3FFF774FD5425000828
:1006100074250008202A04DB203A00FA02F10020A9
:1006200070479140C2F1200320FA03F31943904030
:100630007047FEE700220F49102813D2DFE800F0D0
:100640001117120F120D1208111212121215120A9E
:10065000094800E00948086004E00948FBE7094848
:10066000F9E70A600868486070470748F3E70748F9
:10067000F1E700000C0000206666E63F3333D33F0D
:100680003333B33F3333B3BF3333D3BF6666E6BFD1
:1006900010B562281BD0662811D06C2807D07228AC
:1006A00021D16421002001F075FBC82116E0C8218A
:1006B000002001F06FFB6421012001F06BFBD221CF
:1006C000002001F067FBD221012001F063FB6FF0F5
:1006D000D1042146002001F05DFB2146BDE8104019
:1006E000012001F057BB10BD0148006870470000B1
:1006F0000C00002070B50D46044610F0FF4F07D1E6
:10070000BE21002001F046FBBE21012001F042FB8A
:100710006FF09506B4F5000F0FDBB5F17F5F01DDDB
:10072000314600E00021002001F034FB2046FFF7B5
:1007300078FE01B2012001F02DFB14F1FF4F18D318
:100740000C4984F000408D4207D9FFF76AFE01B2E0
:10075000002001F01FFB314606E0FFF762FE01B208
:10076000002001F017FB0021BDE87040012001F0DE
:1007700011BB70BD0000C0BF014800F06DB80000A3
:1007800064010020014800F067B80000200100204B
:1007900030B590F840500124AC40C56B6C600468E3
:1007A00063604368102B036803D099600068C260DF
:1007B00030BD9A600068C16030BD7047704700006E
:1007C00010B590F821100024022903D00421816380
:1007D00001243DE001680A6822F00E020A60016807
:1007E0000A6822F001020A601A4A0168914201D1A6
:1007F000012121E0174A1432914201D110211BE05E
:10080000144A2832914201D1891515E0114A3C322F
:10081000914201D189140FE00E4A5032914202D127
:100820004FF4803108E00B4A6432914202D14FF418
:10083000801101E04FF08071064A083A51600121B1
:1008400080F82110002180F82010416B01B1884709
:10085000204610BD080002402DE9F05FC16B0C6816
:1008600001680B68D0F840C0042202FA0CF2494D2E
:10087000DFF824A1494E4A4FDFF828B1DFF828E11C
:1008800022422CD05A072AD50A68920603D40A6855
:1008900022F004020A600168A94201D1042219E091
:1008A000514501D1402215E0B14202D14FF480629E
:1008B00010E0B94202D14FF480420BE0594502D119
:1008C0004FF4802206E0714502D14FF4800201E02E
:1008D0004FF080622F4908394A60C16A3BE04FF00F
:1008E000020808FA0CF818EA040F4FF000094FF05C
:1008F000010235D05FEA837832D50B689B0605D4B8
:100900000B6823F00A030B6080F821200168A942DC
:1009100001D1022219E0514501D1202215E0B14256
:1009200002D14FF4007210E0B94202D14FF40052EC
:100930000BE0594502D14FF4003206E0714502D177
:100940004FF4001201E04FF00072124908394A607A
:1009500080F82090816A00291AD0BDE8F05F08472E
:10096000082505FA0CF5254212D01B0710D50B6897
:1009700023F00E030B6090F84010C36B02FA01F1F4
:100980005960826380F8212080F82090016BE2E7B3
:10099000BDE8F09F080002401C0002403000024009
:1009A00044000240580002406C00024030B528B3B9
:1009B00008C8134914221944B1FBF2F18900C1633C
:1009C00010498163022141771A6843F6F0718A4326
:1009D000D0E900142143D0E902452C4321430469A6
:1009E0002143446921438469214311431960002153
:1009F0004163012242770177084630BD012030BDB6
:100A0000F8FFFDBF0000024070B5044690F82000DA
:100A1000002501280CD0012084F8200094F82160E2
:100A20000020012E06D084F820000225284670BD43
:100A3000022070BD022684F82160A0632068066849
:100A400026F0010606602046FFF7A2FEE06A0028B5
:100A50002068016802D041F00E0106E021F0040197
:100A600001602068016841F00A01016020680168A6
:100A700041F001010160D9E72DE9F84FDFF8B891A5
:100A8000002409F1040A0AF1040B23460F270BF195
:100A9000040EC9E00125A5402A40AA427DD1674E37
:100AA000D1F804C0ACEB0608B44532D014DCBCF17C
:100AB000030F3AD009DCBCF1000F2AD0BCF1010FC2
:100AC0001CD0BCF1020F31D11DE0BCF1110F17D0C9
:100AD000BCF1120F2AD119E0B8F5881F19D006DC35
:100AE000B8F5803F15D0B8F5801F1FD111E0B8F5DB
:100AF000001F0ED0B8F5041F18D10AE0CB6815E02E
:100B0000CB681B1D12E0CB6808330FE0CB680C33B9
:100B10000CE08B682BB1012B4FF0080303D045612B
:100B200004E0042302E0056100E00023FF2A01D86D
:100B3000064601E000F104064FEA840501D9A5F15B
:100B40002005D6F8008007FA05FC28EA0C0803FA0D
:100B500005F548EA0508C6F800804D68ED0062D545
:100B6000374DAE6946F00106AE61AD6924F003066B
:100B700005F001050095334D06EB050CDCF8085037
:100B8000A607360F07FA06F825EA0805DFF8B88049
:100B9000404503D14FF0000817E044E0DFF8AC8097
:100BA000404502D14FF001080FE0DFF8A480404536
:100BB00002D14FF0020808E0DFF89880404502D1EA
:100BC0004FF0030801E04FF0040808FA06F848EA7D
:100BD0000508CCF808804D68D9F80060ED034D4653
:100BE00001D5164300E096432E604D68DAF80060A8
:100BF000AD03554601D5164300E096432E604D687F
:100C0000DBF80060ED025D4601D5164300E0964337
:100C10002E604D68DEF80060AD02754601D51643C2
:100C200000E096432E60641C0D682A46E5407FF480
:100C300031AFBDE8F88F0000000401400000111042
:100C4000001002400000014000080140000C01407B
:100C500000100140001401408068084000D00120CD
:100C600070470AB1016170470904FBE701488068D9
:100C7000704700005000002002488168027811444B
:100C80008160704750000020074810B5016841F0AE
:100C900010010160032000F075F8002000F006F854
:100CA00000F024F8002010BD0020024070B50D4D6A
:100CB00004464FF47A712878B1FBF0F00A490968CC
:100CC000B1FBF0F000F0ECFA48B9102C07D200228A
:100CD0002146501E00F036F800206C6070BD0120E7
:100CE00070BD0000500000205C0000200C4808B5DA
:100CF000816941F001018161816901F00101009187
:100D0000C16941F08051C161C06900F0805000901C
:100D10000448416821F0E06141F00071416008BD84
:100D20000010024000000140002809DB00F01F0213
:100D3000012191404009800000F1E020C0F800113D
:100D400070470000F0B40E4B1B680C46C3F302233F
:100D5000C3F10705042D00D90425191D072901D267
:100D6000002300E0DB1E012606FA05F1491E2140A2
:100D700099409E40761E16403143F0BC01F0A5BB61
:100D80000CED00E0064900F0070208684FF6FF038B
:100D9000184040EA0220034A1043086070470000F0
:100DA0000CED00E00000FA052DE9F0470F460500C4
:100DB00061D0434E306800F00700B84209D2306875
:100DC00020F0070038433060306800F00700B84278
:100DD00051D128683B4C810712D5400703D5606884
:100DE00040F4E06060602878000703D5606840F454
:100DF000605060606068A96820F0F000084360609F
:100E00002878C00728D06868012810D021680228F7
:100E100010D0890700292EDA616821F0030101430F
:100E20006160FFF723FF804641F288390DE02168B9
:100E30008903EFE78901EDE7FFF718FFA0EB080151
:100E4000494502D90320BDE8F0876068696800F071
:100E50000C00B0EB810FEFD1306800F00700B84212
:100E60000BD9306820F0070038433060306800F05C
:100E70000700B84201D00120E5E72878400705D5F2
:100E80006068E96820F4E060084360602878000743
:100E900006D56068296920F4605040EAC1006060AE
:100EA00000F038F86168084AC1F30311515CC8408A
:100EB0000649086006480068FFF7F8FE0020C2E710
:100EC00000200240001002403C2500085C00002089
:100ED000540000200448054900684968044AC1F3E9
:100EE0000221515CC84070475C00002000100240A5
:100EF0004C2500080448054900684968044AC1F3C4
:100F0000C221515CC84070475C00002000100240C4
:100F10004C25000812A185B00FC98DE80F0014A060
:100F2000144A006804905168134801F00C03042B24
:100F300010D0082B0ED1C1F38343C9031DF8030061
:100F40000AD5516804AAC1F34041515C0A4A504392
:100F5000B0FBF1F005B0704708494843FAE70000DC
:100F600002030405060708090A0B0C0D0E0F1010EA
:100F7000010200000010024000127A0000093D004A
:100F80002DE9F84F040070D02078C04DC00749D03B
:100F90006868C0F38100012807D06868C0F3810049
:100FA000022809D16868C00306D52868800339D5AE
:100FB00060680028E7D035E06068B0F5803F0BD06E
:100FC00010B1B0F5A02F11D0286820F4803028602F
:100FD000286820F4802002E0286840F480302860EF
:100FE000606890B1FFF742FE06460AE0286840F4C8
:100FF00080202860F0E700BFFFF738FE801B6428E0
:1010000073D828688003F7D50CE0FFF72FFE06465B
:1010100005E000BFFFF72AFE801B6428F0D828688F
:101020008003F7D420789A4E80074FF001094FF0E3
:10103000000839D5686810F00C0F07D06868C0F355
:101040008100022809D16868C00306D42868800797
:1010500014D52069012808D110E02069B0B1C6F884
:101060000090FFF703FE074605E00AE1FFF7FEFDEB
:10107000C01B0228C4D828688007F7D52868616992
:1010800020F0F80040EAC10028600DE0C6F80080BA
:10109000FFF7ECFD074604E0FFF7E8FDC01B022860
:1010A00023D828688007F7D4207800072CD5794802
:1010B000A169D9B1C0F80090FFF7D8FD074604E058
:1010C000FFF7D4FDC01B02280FD8686A8007F7D548
:1010D00071484FF4FA510068B0FBF1F0009000BF86
:1010E0000098411E0091FAD20EE080E0C0F8008026
:1010F000FFF7BCFD074604E0FFF7B8FDC01B022860
:1011000075D8686A8007F7D42078400760D5E86909
:101110000027C00008D4E86940F08050E861E86921
:10112000012700F0805000905C480168C90513D485
:101130000168834641F480710160FFF797FD8246A4
:1011400006E000BFFFF792FDA0EB0A0064284ED82E
:10115000DBF80000C005F5D5E06801280AD008B129
:10116000052813D0286A20F001002862286A20F0A0
:10117000040002E0286A40F001002862E06841F2C1
:10118000883B98B1FFF772FD82460BE0286A40F079
:1011900004002862EEE700BFFFF768FDA0EB0A013C
:1011A00059455AD8286A8007F6D50CE0FFF75EFD4E
:1011B000824605E0FFF75AFDA0EB0A0159454CD8DD
:1011C000286A8007F6D41FB1E86920F08050E861F2
:1011D000E06988B36968C1F38101022944D002281B
:1011E000C6F8608004D0FFF741FD044638E034E0E3
:1011F000FFF73CFD074604E0FFF738FDC01B02285F
:101200002BD828688001F7D4206AB0F5803F05D13B
:101210006868A16820F4003008436860D4E90801D8
:101220000843696821F4741108436860C6F8609047
:10123000FFF71CFD044606E025E000BFFFF716FDA2
:10124000001B022809D828688001F7D51BE000BFE1
:10125000FFF70CFD001B022802D90320BDE8F88F20
:1012600028688001F4D40EE00128F7D06868226A6B
:1012700000F48031914204D1616A00F47010884218
:1012800001D00120EAE70020E8E70000001002405A
:1012900000004242800442425C0000200070004096
:1012A00010B5401EB0F1807F01D3012010BD4FF07A
:1012B000E02460610F21601701F007F90020A061B0
:1012C00007202061002010BD7047704770B590F86E
:1012D0003C20012A19D0012400F83C4F0222427020
:1012E00050F83C3C5A689D6822F070060A684968CC
:1012F000324325F0800529435A6050F83C2C916018
:10130000447000210170084670BD022070BD10B508
:10131000040003D094F83D0010B107E0012010BD97
:10132000002084F83C00204600F00CF8022084F8ED
:101330003D00211D206800F065FE012084F83D007D
:10134000002010BD08B5114A01681148914211D121
:10135000C16941F00201C161C069002200F00200D0
:10136000009011461D20FFF7EDFCBDE808401D2050
:10137000FFF7DABC074A914207D1C16941F0040185
:10138000C161C06900F00400009008BD0004004085
:10139000001002400008004070B5044690F83C0080
:1013A000012817D0012584F83C50022084F83D0024
:1013B0002068826822F0770222F47F428260086807
:1013C000502830D00DDC20284DD005DC98B31028F3
:1013D0003BD148E0022070BD302844D0402834D1B1
:1013E00039E0602828D0702806D0B0F5805F2CD076
:1013F000B0F5005F29D10AE0CB68D1E9012120686E
:1014000000F043FE2068816841F0770109E0CB6875
:10141000D1E90121206800F038FE2068816841F49C
:101420008041816011E0CA684968206800F0E2FEEE
:101430005021206807E016E0CA684968206800F07B
:10144000EAFE6021206800F02AFE84F83D5000206A
:1014500084F83C0070BDCA684968206800F0CAFE84
:1014600040212068EFE7226801461046EBE770470D
:1014700070B50446006801694FF00005C94389074B
:1014800015D4C168C943890711D4E91E016101203F
:101490002077206880698007204602D0FFF7E7FFA9
:1014A00004E000F0BFF8204600F041F925772068FD
:1014B0000169C943490717D4C168C943490713D40F
:1014C0006FF004010161022020772068806910F428
:1014D000407F204602D0FFF7CAFF04E000F0A2F8E8
:1014E000204600F024F9257720680169C9430907DF
:1014F00016D4C168C943090712D46FF0080101610D
:10150000042020772068C0698007204602D0FFF7BA
:10151000AEFF04E000F086F8204600F008F92577D9
:1015200020680169C943C90617D4C168C943C906FF
:1015300013D46FF010010161082020772068C06982
:1015400010F4407F204602D0FFF791FF04E000F046
:1015500069F8204600F0EBF8257720680169C94357
:10156000C90708D1C168C943C90704D1891E0161EF
:10157000204600F0F9F820680169C943090609D43A
:10158000C168C943090605D46FF080010161204696
:10159000FFF79AFE20680169C943490609D4C1686A
:1015A000C943490605D46FF040010161204600F0AF
:1015B00019F920680169C94389060BD4C168C94378
:1015C000890607D46FF0200101612046BDE8704014
:1015D000FFF77BBE70BD000000B585B00021009113
:1015E00001910291039100680B49884212D10B4886
:1015F000816941F0080181618069694600F0080055
:1016000004904FF440700090022001900390044831
:10161000FFF732FA05B000BD00080040001002409C
:10162000000C0140704770B5044690F83C000D4630
:1016300001280DD0012684F83C60022084F83D008A
:1016400042B1042A18D0082A2AD00C2A4DD139E0F8
:10165000022070BD206800F02BFD2068816941F0F8
:10166000080181612068816921F00401816120689D
:1016700081692A69114311E0206800F041FD20686A
:10168000816941F4006181612068816921F4806190
:101690008161206881692A6941EA0221816124E02F
:1016A000206800F059FD2068C16941F00801C1615E
:1016B0002068C16921F00401C1612068C1692A69FB
:1016C000114311E0206800F073FD2068C16941F406
:1016D0000061C1612068C16921F48061C161206835
:1016E000C1692A6941EA0221C16184F83D60002094
:1016F00084F83C0070BD10B5040003D094F83D00A0
:1017000010B107E0012010BD002084F83C00204605
:1017100000F00CF8022084F83D00211D206800F044
:1017200071FC012084F83D00002010BD7047704717
:1017300010B504460068012200F09AFC09492068AF
:10174000884203D1416C41F40041416420688168C2
:1017500001F00701062903D0016841F00101016091
:10176000002010BD002C014010B51C49006809681C
:10177000884232D11A48007801280DD0022825D09D
:1017800000282AD10021084600F004FB0021BDE812
:101790001040012000F0FEBA00F0AEFB00F0D8FBD4
:1017A000FEF748FFFEF7A0FF01460D480022083073
:1017B00000F031FBFEF798FF04460948083000F0BE
:1017C00096FB2146BDE81040FEF794BF0448801CFC
:1017D0000078BDE81040FEF75BBF10BD6000002040
:1017E000140000207047704770B502680446106806
:1017F000D168536910F00F0F50D003F0010501F4C8
:10180000907635435DD0C20705D0CA0503D5E26B9B
:1018100042F00102E263420705D5DA0703D0E26B2A
:1018200042F00202E263820705D5DA0703D0E26BD9
:1018300042F00402E263020705D5DA0703D0E26B47
:1018400042F00802E263E26B002A33D0800604D53E
:10185000880602D5204600F057FD20684069E16BFC
:10186000C0F38010090700D428B3204600F035FDEE
:101870002068416949061AD5416921F0400141615A
:10188000606BA0B11B494163606BFEF799FF0028B4
:1018900010D0606B416BBDE870400847830610D5DF
:1018A0008B060ED52046BDE8704000F02DBD2046C9
:1018B000FFF799FF70BD2046FFF795FF0020E0631A
:1018C00070BD030606D50B0604D52046BDE8704062
:1018D00000F0C2BD4006F3D54806F1D5D1682046D8
:1018E00021F04001D160202184F8391000F031F955
:1018F00070BD00003B22000870B5040004D094F8CD
:101900003900002510B106E0012070BD84F8385080
:10191000204600F023F8242084F839002068C168AC
:1019200021F40051C160204600F03AFD20680169B1
:1019300021F4904101612068416921F02A0141614F
:101940002068C16841F40051C160E563202084F83B
:10195000390084F83A00002070BD0000F0B585B071
:1019600000240646009401940294039400682D49D3
:10197000884254D12C48816941F480418161816958
:1019800001F480410491816941F004018161806921
:10199000264D00F0040004904FF4007000900220E7
:1019A00001900320039069462846FFF765F8281543
:1019B000CDE90004694628460294FFF75DF81D4D05
:1019C0001B488027C5E90004C5E902472C616C610A
:1019D000AC612846EC61FEF7E9FF08B1FEF7EEFEC8
:1019E00075636E62134D12484435143801C51020DA
:1019F00091C5104845F8104944306C61AC61EC6108
:101A0000FEF7D4FF08B1FEF7D9FE35630022114678
:101A100025206E62FFF796F92520FFF785F905B0BE
:101A2000F0BD0000003801400010024000080140F5
:101A30005800024020010020F8B5044690F83A0012
:101A400020283CD1C1B3BAB394F83800012836D06D
:101A5000012084F83800A162A2850025E5632220D8
:101A600084F83A00636B17489862636B1648D86233
:101A7000636B16481863606B134645630846666BD4
:101A8000216802463046091DFEF7BEFF2068016846
:101A90004168009184F83850C16841F48071C16098
:101AA0002068416941F0010141612068416941F0CC
:101AB000400141610020F8BDFFE70120FBE7022063
:101AC000F9E7000095220008D12200084B22000807
:101AD0002DE9F0411C4900680968884230D11B4C4F
:101AE000002601256078A71C10B1012828D104E048
:101AF0003878732818D0312818D014490122891C4D
:101B00001148FFF799FF3878022166280BD0622828
:101B100009D0722807D06C2805D069280FD0642816
:101B200010D06B280CD12170657000E06670BDE8A4
:101B3000F04106490122891C0348FFF77DBF26704A
:101B4000BDE8F0812570EFE7E000002014000020E0
:101B500070477047FEE700000D4808B5416941F045
:101B6000010141614069002200F00100009011462E
:101B70000E20FFF7E7F80E20FFF7D6F800221146F7
:101B80000F20FFF7DFF8BDE808400F20FFF7CCB8C3
:101B90000010024070B586B00024214800940194E2
:101BA00002940394816941F020018161816901F00F
:101BB00020010491816941F008018161816901F08E
:101BC00008010491816941F0040181618069154E29
:101BD00000F0040040F603450490002229463046F8
:101BE000FFF73FF801200095CDE9010402200390A2
:101BF00069463046FEF740FF4FF40040CDE900044F
:101C0000694609480294FEF737FF3820CDE9000401
:101C1000694630460294FEF72FFF06B070BD000003
:101C200000100240000C01400008014010B586B0D1
:101C300000241748009401940294039404941349D7
:101C40000594016041F63F71C0E901143121C0E9FA
:101C500003148461FFF75BFB08B1FEF7AFFD4FF49F
:101C60008050009069460A48FFF796FB08B1FEF7DE
:101C7000A5FD049404A906480594FFF727FB002856
:101C800001D0FEF79BFD06B010BD0000000400402F
:101C90006000002010B58EB00024079408940994C9
:101CA0000A940B941C2168460C94FEF752FA2248C1
:101CB000204901600921C0E90114FE21C0E9031493
:101CC0008461FFF724FB08B1FEF778FD4FF48050E4
:101CD000079007A91848FFF75FFB08B1FEF76EFDF4
:101CE0001548FFF708FD08B1FEF768FD0B940BA936
:101CF00011480C94FFF7EAFA08B1FEF75FFD602087
:101D0000CDE900040294082269460B480494FFF7C9
:101D10008AFC08B1FEF752FD0C2269460648FFF71F
:101D200082FC08B1FEF74AFD0348FFF755FC0EB0F0
:101D300010BD000000080040A00000200C4810B5B5
:101D40000A4901604FF416514160002181600C2264
:101D5000C160C0E904128161C161FFF7CDFD0028B7
:101D600003D0BDE81040FEF729BD10BD003801408A
:101D7000E0000020FEE7000010B508210448FFF74E
:101D8000D7FCBDE810400C210148FFF7D1BC000092
:101D9000A000002070B56FF0FE02914201DA1146FA
:101DA00002E0FF2900DDFF214FF48065184C6E0032
:101DB00050B101282BD100291DDB002229462046E5
:101DC000FEF74FFF01221CE000290ADB002201215F
:101DD0002046FEF746FF012202212046FEF741FF82
:101DE000EBE7012211462046FEF73BFF00220221CD
:101DF0002046FEF736FF012229462046FEF731FF36
:101E0000002231462046BDE87040FEF72ABF70BD73
:101E1000000C014070472DE9FC5F0B46044611465B
:101E20001846FEF7F3F90546E0602069606101900D
:101E30002561A06A00902946E0620846FEF7E6F9AF
:101E40002168FEF7E9F983462946E0610846FEF776
:101E50008BF9FEF7FFFAD4F818A080468946504661
:101E6000FEF7F8FA06460F466068FEF7F3FA4FF001
:101E7000FF32FEF7BFFA32463B46FEF749FA4246CA
:101E80004B46FEF745FAFEF7F8FA064620620121B6
:101E90002846FEF731FA2946FEF7BBF90199FEF70D
:101EA00063F905465146A068FEF7E8F92946FEF7B2
:101EB000B3F90546606259460098FEF755F9314678
:101EC000FEF752F92946FEF74FF9A062216BFEF7A3
:101ED000F1FA206B08D380F00040A16AFEF7EAFA1D
:101EE00003D2206B80F00040A062BDE8FC9F806AB6
:101EF000704770477047000070B5124D202128468A
:101F0000FEF7AAFE104C102120802846FEF7A4FE02
:101F1000608008212846FEF79FFEA0804FF4004114
:101F20000A48FEF799FEE0800020A11E34F8102038
:101F300022B90A8802EB4002521C0A80401C032886
:101F4000F4DD70BD000C01400200002000080140DB
:101F50000148B0F90000704700000020FEF78CBE79
:101F600030B58FB028216846FEF7F3F814210AA88F
:101F7000FEF7EFF801210804CDE9001000240294D7
:101F800002250491CDE907504FF4E010099068460E
:101F9000FEF7F6FF0F20CDE90A056802CDE90C40F7
:101FA00002210AA80E94FEF7FFFE0FB030BD00001C
:101FB0000D48016841F00101016041680B4A114080
:101FC000416001680A4A11400160016821F48021E2
:101FD0000160416821F4FE0141604FF41F018160FE
:101FE0000449C00308607047001002400000FFF879
:101FF000FFFFF6FE08ED00E00148FFF739BA0000E8
:1020000060000020F0B50268164B174C174D4FF0DA
:102010008047984205D0B84203D0A04201D0A842E0
:1020200003D122F070064A683243984205D0B84284
:1020300003D0A04201D0A84203D122F44074CA6860
:1020400022434C6922F08002224302608A68C26205
:102050000A688262984201D10969016301214161E4
:10206000F0BD0000002C01400004004000080040CA
:1020700010B501F01F030121046A99408C430462EA
:10208000016A9A401143016210BD10B5846842EAAA
:10209000032224F47F440A432243826010BD8268F5
:1020A00022F070020A4342F007018160704700008D
:1020B00030B5026A22F001020262026A4368846952
:1020C00024F073050C682C4322F002058A682A4329
:1020D0000A4DA8420BD122F00805CA6823F44073C8
:1020E0002A434D6922F004021D438B692B43436050
:1020F000846149684163026230BD0000002C0140E8
:1021000030B5026A22F010020262026A43688469F2
:102110000D6824F4E64444EA05248D6822F0200288
:1021200042EA05120B4DA8420ED1CD6822F0800282
:1021300042EA05124D6923F4406343EA85038D6941
:1021400022F0400243EA8503436084614968816369
:10215000026230BD002C014030B5026A22F4807268
:102160000262036A4268C46923F4007324F07305B1
:102170000C682C438D6843EA05230C4DA8420ED110
:10218000CD6823F4006343EA05234D6922F44052ED
:1021900042EA05128D6923F4806342EA0512426027
:1021A000C4614968C163036230BD0000002C014076
:1021B00030B5026A22F480520262046A4268C3693E
:1021C0000D6823F4E64343EA05238D6824F40054A4
:1021D00044EA0534064DA84204D14D6922F48042F8
:1021E00042EA85124260C36149680164046230BDFD
:1021F000002C014010B5036A046A24F00104046253
:10220000846924F0F00444EA021423F00A020A4329
:102210008461026210BD10B5036A23F010030362EB
:102220008369046A23F4704343EA023224F0A00372
:1022300043EA01118261016210BD10B5406A0021BC
:10224000C185C184FFF7CFFA10BD70B5446A20681C
:10225000406994F83910C0F3C0100025212904D139
:1022600018B1E584204600F046F82068406994F8EB
:102270003A10C0F38010222904D118B1E585204618
:1022800000F02BF8E06B40F01000E0632046FFF711
:10229000AAFA70BD10B50146406A09680968890646
:1022A00013D40021C1850168CA6822F48072CA6013
:1022B00001684A6922F001024A6101684A6922F014
:1022C00040024A61202180F83A10FFF701FC10BD5E
:1022D00010B5406AFFF73CFC10BD0168CA6822F4E3
:1022E0009072CA6001684A6922F001024A612021A5
:1022F00080F83A1070470168CA6822F0C002CA60CC
:10230000202180F83910704710B590F83A10222932
:1023100001D0022010BD8168B1F5805F11D0016944
:10232000002901681FD0496801F07F03816A4A1CB7
:1023300082620B70C18D491E0904090CC18518D039
:102340002BE00269816A002A0268526805D0D2B285
:102350000A80816A491C8162ECE7C2F308020A80A4
:10236000816A891CF7E74A68816A4B1C83620A709C
:10237000E0E70168CA6822F02002CA600168CA6802
:1023800022F48072CA6001684A6922F001024A613F
:10239000202180F83A10FFF79BFB002010BD0000C1
:1023A0002DE9F041044600680169E26821F44051DA
:1023B000114301612169A0680843616908432168EC
:1023C000CA6841F20C639A430243CA6020684169BB
:1023D000A26921F44071114341611E4920686425BE
:1023E0003226884202D1FEF785FD01E0FEF772FD3C
:1023F00000EBC00101EB001160686FF0180780006E
:10240000B1FBF0F2B2FBF5F2B1FBF0F37A4303EB70
:102410008202B1FBF0F306EB0212B2FBF5F2B3FB62
:10242000F5F302F0F00202EB0312B1FBF0F3B1FBA3
:10243000F0F0B0FBF5F0784303EB800006EB001002
:10244000B0FBF5F0216800F00F0010448860BDE893
:10245000F08100000038014090F83910212901D0A6
:10246000022070478168B1F5805F016A0BD04A1C79
:102470000262026809785160C18C491E0904090C86
:10248000C1840ED017E009880268C1F308015160C9
:1024900001690029016A02D0491C0162ECE7891C2C
:1024A000FBE70168CA6822F08002CA600068C16860
:1024B00041F04001C1600020704700000148FFF773
:1024C00093B90000E0000020FEE70907090E00288C
:1024D00004DB00F1E02080F80014704700F00F00EA
:1024E00000F1E02080F8141D704702E008C8121FB8
:1024F00008C1002AFAD170477047002001E001C1ED
:10250000121F002AFBD17047FEF7BEFBFFF728FD24
:10251000FFF740FBFFF78AFBFFF7BCFBFFF70EFC62
:10252000FFF71AFBFFF728FC012202490248FFF7D8
:1025300083FAFEE716000020E00000200000000003
:102540000000000001020304060708090000000063
:102550000102030474250008000000206000000050
:10256000EA240008D4250008600000204805000087
:10257000FA24000800000000000000000000000035
:10258000000000000000000000000000000000004B
:102590000000204217B7D1380000C84100000000F9
:1025A00000000000000000000AD7A33B000000006C
:1025B000000000000000000000000000000000001B
:1025C0000000344301000000100000000000000083
:0425D0000024F400EF
:04000005080000ED02
:00000001FF
